{
  "_format": "hh-sol-artifact-1",
  "contractName": "ClubDAO",
  "sourceName": "contracts/ClubDAO.sol",
  "abi": [
    {
      "inputs": [],
      "stateMutability": "nonpayable",
      "type": "constructor"
    },
    {
      "anonymous": false,
      "inputs": [
        {
          "indexed": false,
          "internalType": "uint32",
          "name": "proposalIndex",
          "type": "uint32"
        }
      ],
      "name": "ProposalInitiated",
      "type": "event"
    },
    {
      "inputs": [
        {
          "internalType": "string",
          "name": "proposalName",
          "type": "string"
        },
        {
          "internalType": "uint256",
          "name": "time",
          "type": "uint256"
        }
      ],
      "name": "addProposal",
      "outputs": [],
      "stateMutability": "nonpayable",
      "type": "function"
    },
    {
      "inputs": [],
      "name": "clubbonus",
      "outputs": [
        {
          "internalType": "contract MyERC721",
          "name": "",
          "type": "address"
        }
      ],
      "stateMutability": "view",
      "type": "function"
    },
    {
      "inputs": [],
      "name": "clubcoin",
      "outputs": [
        {
          "internalType": "contract MyERC20",
          "name": "",
          "type": "address"
        }
      ],
      "stateMutability": "view",
      "type": "function"
    },
    {
      "inputs": [
        {
          "internalType": "address",
          "name": "student",
          "type": "address"
        }
      ],
      "name": "getAddProposalTimes",
      "outputs": [
        {
          "internalType": "uint32",
          "name": "",
          "type": "uint32"
        }
      ],
      "stateMutability": "view",
      "type": "function"
    },
    {
      "inputs": [],
      "name": "getBonus",
      "outputs": [],
      "stateMutability": "payable",
      "type": "function"
    },
    {
      "inputs": [
        {
          "internalType": "uint32",
          "name": "index",
          "type": "uint32"
        }
      ],
      "name": "getEndTime",
      "outputs": [
        {
          "internalType": "uint256",
          "name": "",
          "type": "uint256"
        }
      ],
      "stateMutability": "view",
      "type": "function"
    },
    {
      "inputs": [
        {
          "internalType": "uint32",
          "name": "index",
          "type": "uint32"
        }
      ],
      "name": "getProposalAgree",
      "outputs": [
        {
          "internalType": "uint32",
          "name": "",
          "type": "uint32"
        }
      ],
      "stateMutability": "view",
      "type": "function"
    },
    {
      "inputs": [
        {
          "internalType": "uint32",
          "name": "index",
          "type": "uint32"
        }
      ],
      "name": "getProposalDisagree",
      "outputs": [
        {
          "internalType": "uint32",
          "name": "",
          "type": "uint32"
        }
      ],
      "stateMutability": "view",
      "type": "function"
    },
    {
      "inputs": [
        {
          "internalType": "uint32",
          "name": "index",
          "type": "uint32"
        },
        {
          "internalType": "uint256",
          "name": "time",
          "type": "uint256"
        }
      ],
      "name": "getProposalFinalResult",
      "outputs": [
        {
          "internalType": "string",
          "name": "",
          "type": "string"
        }
      ],
      "stateMutability": "view",
      "type": "function"
    },
    {
      "inputs": [
        {
          "internalType": "uint32",
          "name": "index",
          "type": "uint32"
        }
      ],
      "name": "getProposalName",
      "outputs": [
        {
          "internalType": "string",
          "name": "",
          "type": "string"
        }
      ],
      "stateMutability": "view",
      "type": "function"
    },
    {
      "inputs": [
        {
          "internalType": "uint32",
          "name": "index",
          "type": "uint32"
        }
      ],
      "name": "getProposalReward",
      "outputs": [],
      "stateMutability": "payable",
      "type": "function"
    },
    {
      "inputs": [
        {
          "internalType": "uint32",
          "name": "index",
          "type": "uint32"
        }
      ],
      "name": "getStartTime",
      "outputs": [
        {
          "internalType": "uint256",
          "name": "",
          "type": "uint256"
        }
      ],
      "stateMutability": "view",
      "type": "function"
    },
    {
      "inputs": [],
      "name": "getTime",
      "outputs": [
        {
          "internalType": "uint256",
          "name": "",
          "type": "uint256"
        }
      ],
      "stateMutability": "view",
      "type": "function"
    },
    {
      "inputs": [
        {
          "internalType": "address",
          "name": "student",
          "type": "address"
        }
      ],
      "name": "getVoteProposalTimes",
      "outputs": [
        {
          "internalType": "uint32",
          "name": "",
          "type": "uint32"
        }
      ],
      "stateMutability": "view",
      "type": "function"
    },
    {
      "inputs": [],
      "name": "proposals",
      "outputs": [
        {
          "internalType": "uint256",
          "name": "new_index",
          "type": "uint256"
        },
        {
          "internalType": "uint256",
          "name": "clubcoinForAdd",
          "type": "uint256"
        },
        {
          "internalType": "uint256",
          "name": "clubcoinForVote",
          "type": "uint256"
        },
        {
          "internalType": "uint256",
          "name": "clubcoinForReward",
          "type": "uint256"
        },
        {
          "internalType": "uint256",
          "name": "duration",
          "type": "uint256"
        }
      ],
      "stateMutability": "view",
      "type": "function"
    },
    {
      "inputs": [
        {
          "internalType": "uint32",
          "name": "index",
          "type": "uint32"
        },
        {
          "internalType": "uint256",
          "name": "time",
          "type": "uint256"
        }
      ],
      "name": "updateProposalResult",
      "outputs": [
        {
          "internalType": "string",
          "name": "",
          "type": "string"
        }
      ],
      "stateMutability": "payable",
      "type": "function"
    },
    {
      "inputs": [
        {
          "internalType": "uint32",
          "name": "agree",
          "type": "uint32"
        },
        {
          "internalType": "uint32",
          "name": "index",
          "type": "uint32"
        },
        {
          "internalType": "uint256",
          "name": "time",
          "type": "uint256"
        },
        {
          "internalType": "address",
          "name": "student",
          "type": "address"
        }
      ],
      "name": "voteProposal",
      "outputs": [],
      "stateMutability": "nonpayable",
      "type": "function"
    }
  ],
  "bytecode": "0x60806040526000600960006101000a81548163ffffffff021916908363ffffffff1602179055506103e8600960046101000a81548163ffffffff021916908363ffffffff1602179055503480156200005657600080fd5b50604051620000659062000179565b620000709062000246565b604051809103906000f0801580156200008d573d6000803e3d6000fd5b506000806101000a81548173ffffffffffffffffffffffffffffffffffffffff021916908373ffffffffffffffffffffffffffffffffffffffff160217905550604051620000db9062000187565b620000e6906200031d565b604051809103906000f08015801562000103573d6000803e3d6000fd5b50600160006101000a81548173ffffffffffffffffffffffffffffffffffffffff021916908373ffffffffffffffffffffffffffffffffffffffff1602179055506102586002600501819055506109c460028001819055506103e860026003018190555061138860026004018190555062000354565b6119c380620026e083390190565b612d1280620040a383390190565b600082825260208201905092915050565b7f436c7562436f696e000000000000000000000000000000000000000000000000600082015250565b6000620001de60088362000195565b9150620001eb82620001a6565b602082019050919050565b7f4343000000000000000000000000000000000000000000000000000000000000600082015250565b60006200022e60028362000195565b91506200023b82620001f6565b602082019050919050565b600060408201905081810360008301526200026181620001cf565b9050818103602083015262000276816200021f565b9050919050565b7f436c7562426f6e75730000000000000000000000000000000000000000000000600082015250565b6000620002b560098362000195565b9150620002c2826200027d565b602082019050919050565b7f4342000000000000000000000000000000000000000000000000000000000000600082015250565b60006200030560028362000195565b91506200031282620002cd565b602082019050919050565b600060408201905081810360008301526200033881620002a6565b905081810360208301526200034d81620002f6565b9050919050565b61237c80620003646000396000f3fe6080604052600436106100fe5760003560e01c806364d73ae111610095578063a4ea40a111610064578063a4ea40a114610345578063c208abdc14610370578063c552e7b814610399578063e3ce5955146103c9578063f6b009f314610406576100fe565b806364d73ae1146102aa578063679391ca146102e75780638bdff161146103125780639e30993e1461031c576100fe565b80632f2895e0116100d15780632f2895e0146101f7578063356f999914610213578063557ed1ba1461025057806355ef20e61461027b576100fe565b806313e01904146101035780631c4db60e14610140578063228df8f61461017d5780632c76feb5146101ba575b600080fd5b34801561010f57600080fd5b5061012a600480360381019061012591906117df565b610443565b604051610137919061182b565b60405180910390f35b34801561014c57600080fd5b5061016760048036038101906101629190611872565b61049c565b604051610174919061182b565b60405180910390f35b34801561018957600080fd5b506101a4600480360381019061019f91906118d5565b6104db565b6040516101b191906119ae565b60405180910390f35b3480156101c657600080fd5b506101e160048036038101906101dc9190611872565b610604565b6040516101ee91906119df565b60405180910390f35b610211600480360381019061020c9190611872565b610633565b005b34801561021f57600080fd5b5061023a60048036038101906102359190611872565b6107a0565b60405161024791906119df565b60405180910390f35b34801561025c57600080fd5b506102656107cf565b60405161027291906119df565b60405180910390f35b34801561028757600080fd5b506102906107d7565b6040516102a19594939291906119fa565b60405180910390f35b3480156102b657600080fd5b506102d160048036038101906102cc9190611872565b6107fb565b6040516102de919061182b565b60405180910390f35b3480156102f357600080fd5b506102fc61083a565b6040516103099190611aac565b60405180910390f35b61031a61085e565b005b34801561032857600080fd5b50610343600480360381019061033e9190611ac7565b6109d9565b005b34801561035157600080fd5b5061035a610f1b565b6040516103679190611b4f565b60405180910390f35b34801561037c57600080fd5b5061039760048036038101906103929190611bcf565b610f41565b005b6103b360048036038101906103ae91906118d5565b6113a1565b6040516103c091906119ae565b60405180910390f35b3480156103d557600080fd5b506103f060048036038101906103eb9190611872565b6115c4565b6040516103fd91906119ae565b60405180910390f35b34801561041257600080fd5b5061042d600480360381019061042891906117df565b61167b565b60405161043a919061182b565b60405180910390f35b6000600a60008373ffffffffffffffffffffffffffffffffffffffff1673ffffffffffffffffffffffffffffffffffffffff16815260200190815260200160002060009054906101000a900463ffffffff169050919050565b6000600860000160008363ffffffff1663ffffffff16815260200190815260200160002060020160009054906101000a900463ffffffff169050919050565b606081600260000160008563ffffffff1663ffffffff1681526020019081526020016000206002015410610544576040517f08c379a000000000000000000000000000000000000000000000000000000000815260040161053b90611c7b565b60405180910390fd5b6001600860000160008563ffffffff1663ffffffff16815260200190815260200160002060020160089054906101000a900463ffffffff1663ffffffff1614156105c5576040518060400160405280600481526020017f506173730000000000000000000000000000000000000000000000000000000081525090506105fe565b6040518060400160405280600481526020017f46616c6c0000000000000000000000000000000000000000000000000000000081525090505b92915050565b6000600260000160008363ffffffff1663ffffffff168152602001908152602001600020600201549050919050565b3373ffffffffffffffffffffffffffffffffffffffff16600260000160008363ffffffff1663ffffffff16815260200190815260200160002060000160049054906101000a900473ffffffffffffffffffffffffffffffffffffffff1673ffffffffffffffffffffffffffffffffffffffff16146106e6576040517f08c379a00000000000000000000000000000000000000000000000000000000081526004016106dd90611d0d565b60405180910390fd5b60001515600260000160008363ffffffff1663ffffffff16815260200190815260200160002060040160019054906101000a900460ff1615151461075f576040517f08c379a000000000000000000000000000000000000000000000000000000000815260040161075690611d9f565b60405180910390fd5b6001600260000160008363ffffffff1663ffffffff16815260200190815260200160002060040160016101000a81548160ff02191690831515021790555050565b6000600260000160008363ffffffff1663ffffffff168152602001908152602001600020600101549050919050565b600042905090565b60028060010154908060020154908060030154908060040154908060050154905085565b6000600860000160008363ffffffff1663ffffffff16815260200190815260200160002060020160049054906101000a900463ffffffff169050919050565b60008054906101000a900473ffffffffffffffffffffffffffffffffffffffff1681565b6003600a60003373ffffffffffffffffffffffffffffffffffffffff1673ffffffffffffffffffffffffffffffffffffffff16815260200190815260200160002060009054906101000a900463ffffffff1663ffffffff1610156108f7576040517f08c379a00000000000000000000000000000000000000000000000000000000081526004016108ee90611e31565b60405180910390fd5b6009600481819054906101000a900463ffffffff168092919061091990611e80565b91906101000a81548163ffffffff021916908363ffffffff16021790555050600160009054906101000a900473ffffffffffffffffffffffffffffffffffffffff1673ffffffffffffffffffffffffffffffffffffffff16630184e952600960049054906101000a900463ffffffff166040518263ffffffff1660e01b81526004016109a59190611ede565b600060405180830381600087803b1580156109bf57600080fd5b505af11580156109d3573d6000803e3d6000fd5b50505050565b60026003015460008054906101000a900473ffffffffffffffffffffffffffffffffffffffff1673ffffffffffffffffffffffffffffffffffffffff166370a08231836040518263ffffffff1660e01b8152600401610a389190611f08565b60206040518083038186803b158015610a5057600080fd5b505afa158015610a64573d6000803e3d6000fd5b505050506040513d601f19601f82011682018060405250810190610a889190611f38565b1015610ac9576040517f08c379a0000000000000000000000000000000000000000000000000000000008152600401610ac090611fd7565b60405180910390fd5b60008054906101000a900473ffffffffffffffffffffffffffffffffffffffff1673ffffffffffffffffffffffffffffffffffffffff166323b872dd82306002600301546040518463ffffffff1660e01b8152600401610b2b93929190611ff7565b602060405180830381600087803b158015610b4557600080fd5b505af1158015610b59573d6000803e3d6000fd5b505050506040513d601f19601f82011682018060405250810190610b7d9190612066565b5060001515600860000160008563ffffffff1663ffffffff16815260200190815260200160002060010160008373ffffffffffffffffffffffffffffffffffffffff1673ffffffffffffffffffffffffffffffffffffffff16815260200190815260200160002060009054906101000a900460ff16151514610c34576040517f08c379a0000000000000000000000000000000000000000000000000000000008152600401610c2b906120df565b60405180910390fd5b81600260000160008563ffffffff1663ffffffff1681526020019081526020016000206002015411610c9b576040517f08c379a0000000000000000000000000000000000000000000000000000000008152600401610c9290612171565b60405180910390fd5b6005600b60008373ffffffffffffffffffffffffffffffffffffffff1673ffffffffffffffffffffffffffffffffffffffff16815260200190815260200160002060009054906101000a900463ffffffff1663ffffffff161115610d34576040517f08c379a0000000000000000000000000000000000000000000000000000000008152600401610d2b906121dd565b60405180910390fd5b60018463ffffffff161415610da857600860000160008463ffffffff1663ffffffff168152602001908152602001600020600201600081819054906101000a900463ffffffff1680929190610d8890611e80565b91906101000a81548163ffffffff021916908363ffffffff160217905550505b60008463ffffffff161415610e1c57600860000160008463ffffffff1663ffffffff168152602001908152602001600020600201600481819054906101000a900463ffffffff1680929190610dfc90611e80565b91906101000a81548163ffffffff021916908363ffffffff160217905550505b6001600860000160008563ffffffff1663ffffffff16815260200190815260200160002060010160008373ffffffffffffffffffffffffffffffffffffffff1673ffffffffffffffffffffffffffffffffffffffff16815260200190815260200160002060006101000a81548160ff021916908315150217905550600b60008273ffffffffffffffffffffffffffffffffffffffff1673ffffffffffffffffffffffffffffffffffffffff168152602001908152602001600020600081819054906101000a900463ffffffff1680929190610ef690611e80565b91906101000a81548163ffffffff021916908363ffffffff1602179055505050505050565b600160009054906101000a900473ffffffffffffffffffffffffffffffffffffffff1681565b600280015460008054906101000a900473ffffffffffffffffffffffffffffffffffffffff1673ffffffffffffffffffffffffffffffffffffffff166370a08231336040518263ffffffff1660e01b8152600401610f9f9190611f08565b60206040518083038186803b158015610fb757600080fd5b505afa158015610fcb573d6000803e3d6000fd5b505050506040513d601f19601f82011682018060405250810190610fef9190611f38565b1015611030576040517f08c379a00000000000000000000000000000000000000000000000000000000081526004016110279061226f565b60405180910390fd5b60008054906101000a900473ffffffffffffffffffffffffffffffffffffffff1673ffffffffffffffffffffffffffffffffffffffff166323b872dd333060028001546040518463ffffffff1660e01b815260040161109193929190611ff7565b602060405180830381600087803b1580156110ab57600080fd5b505af11580156110bf573d6000803e3d6000fd5b505050506040513d601f19601f820116820180604052508101906110e39190612066565b5060006040518060e00160405280600960009054906101000a900463ffffffff1663ffffffff1681526020013373ffffffffffffffffffffffffffffffffffffffff16815260200183815260200160026005015484611142919061228f565b815260200185858080601f016020809104026020016040519081016040528093929190818152602001838380828437600081840152601f19601f820116905080830192505050505050508152602001600015158152602001600015158152509050600960009054906101000a900463ffffffff1663ffffffff166002600101819055508060026000016000600960009054906101000a900463ffffffff1663ffffffff1663ffffffff16815260200190815260200160002060008201518160000160006101000a81548163ffffffff021916908363ffffffff16021790555060208201518160000160046101000a81548173ffffffffffffffffffffffffffffffffffffffff021916908373ffffffffffffffffffffffffffffffffffffffff160217905550604082015181600101556060820151816002015560808201518160030190805190602001906112989291906116d4565b5060a08201518160040160006101000a81548160ff02191690831515021790555060c08201518160040160016101000a81548160ff0219169083151502179055509050506009600081819054906101000a900463ffffffff16809291906112fe90611e80565b91906101000a81548163ffffffff021916908363ffffffff16021790555050600a60003373ffffffffffffffffffffffffffffffffffffffff1673ffffffffffffffffffffffffffffffffffffffff168152602001908152602001600020600081819054906101000a900463ffffffff168092919061137c90611e80565b91906101000a81548163ffffffff021916908363ffffffff1602179055505050505050565b606081600260000160008563ffffffff1663ffffffff168152602001908152602001600020600201541061140a576040517f08c379a000000000000000000000000000000000000000000000000000000000815260040161140190611c7b565b60405180910390fd5b60011515600260000160008563ffffffff1663ffffffff16815260200190815260200160002060040160009054906101000a90505050600860000160008463ffffffff1663ffffffff16815260200190815260200160002060020160049054906101000a900463ffffffff1663ffffffff16600860000160008563ffffffff1663ffffffff16815260200190815260200160002060020160009054906101000a900463ffffffff1663ffffffff161115611540576001600860000160008563ffffffff1663ffffffff16815260200190815260200160002060020160086101000a81548163ffffffff021916908363ffffffff1602179055506040518060400160405280600481526020017f506173730000000000000000000000000000000000000000000000000000000081525090506115be565b6000600860000160008563ffffffff1663ffffffff16815260200190815260200160002060020160086101000a81548163ffffffff021916908363ffffffff1602179055506040518060400160405280600481526020017f46616c6c0000000000000000000000000000000000000000000000000000000081525090505b92915050565b6060600260000160008363ffffffff1663ffffffff16815260200190815260200160002060030180546115f690612314565b80601f016020809104026020016040519081016040528092919081815260200182805461162290612314565b801561166f5780601f106116445761010080835404028352916020019161166f565b820191906000526020600020905b81548152906001019060200180831161165257829003601f168201915b50505050509050919050565b6000600b60008373ffffffffffffffffffffffffffffffffffffffff1673ffffffffffffffffffffffffffffffffffffffff16815260200190815260200160002060009054906101000a900463ffffffff169050919050565b8280546116e090612314565b90600052602060002090601f0160209004810192826117025760008555611749565b82601f1061171b57805160ff1916838001178555611749565b82800160010185558215611749579182015b8281111561174857825182559160200191906001019061172d565b5b509050611756919061175a565b5090565b5b8082111561177357600081600090555060010161175b565b5090565b600080fd5b600080fd5b600073ffffffffffffffffffffffffffffffffffffffff82169050919050565b60006117ac82611781565b9050919050565b6117bc816117a1565b81146117c757600080fd5b50565b6000813590506117d9816117b3565b92915050565b6000602082840312156117f5576117f4611777565b5b6000611803848285016117ca565b91505092915050565b600063ffffffff82169050919050565b6118258161180c565b82525050565b6000602082019050611840600083018461181c565b92915050565b61184f8161180c565b811461185a57600080fd5b50565b60008135905061186c81611846565b92915050565b60006020828403121561188857611887611777565b5b60006118968482850161185d565b91505092915050565b6000819050919050565b6118b28161189f565b81146118bd57600080fd5b50565b6000813590506118cf816118a9565b92915050565b600080604083850312156118ec576118eb611777565b5b60006118fa8582860161185d565b925050602061190b858286016118c0565b9150509250929050565b600081519050919050565b600082825260208201905092915050565b60005b8381101561194f578082015181840152602081019050611934565b8381111561195e576000848401525b50505050565b6000601f19601f8301169050919050565b600061198082611915565b61198a8185611920565b935061199a818560208601611931565b6119a381611964565b840191505092915050565b600060208201905081810360008301526119c88184611975565b905092915050565b6119d98161189f565b82525050565b60006020820190506119f460008301846119d0565b92915050565b600060a082019050611a0f60008301886119d0565b611a1c60208301876119d0565b611a2960408301866119d0565b611a3660608301856119d0565b611a4360808301846119d0565b9695505050505050565b6000819050919050565b6000611a72611a6d611a6884611781565b611a4d565b611781565b9050919050565b6000611a8482611a57565b9050919050565b6000611a9682611a79565b9050919050565b611aa681611a8b565b82525050565b6000602082019050611ac16000830184611a9d565b92915050565b60008060008060808587031215611ae157611ae0611777565b5b6000611aef8782880161185d565b9450506020611b008782880161185d565b9350506040611b11878288016118c0565b9250506060611b22878288016117ca565b91505092959194509250565b6000611b3982611a79565b9050919050565b611b4981611b2e565b82525050565b6000602082019050611b646000830184611b40565b92915050565b600080fd5b600080fd5b600080fd5b60008083601f840112611b8f57611b8e611b6a565b5b8235905067ffffffffffffffff811115611bac57611bab611b6f565b5b602083019150836001820283011115611bc857611bc7611b74565b5b9250929050565b600080600060408486031215611be857611be7611777565b5b600084013567ffffffffffffffff811115611c0657611c0561177c565b5b611c1286828701611b79565b93509350506020611c25868287016118c0565b9150509250925092565b7f546869732070726f706f73616c20697320766f74696e672e0000000000000000600082015250565b6000611c65601883611920565b9150611c7082611c2f565b602082019050919050565b60006020820190508181036000830152611c9481611c58565b9050919050565b7f4f6e6c792070726f706f7365722063616e20726561642070726f706f73616c2060008201527f726573756c74207768696c6520766f74696e672e000000000000000000000000602082015250565b6000611cf7603483611920565b9150611d0282611c9b565b604082019050919050565b60006020820190508181036000830152611d2681611cea565b9050919050565b7f596f75206861766520616c726561647920676f7474656e20746865207265776160008201527f7264000000000000000000000000000000000000000000000000000000000000602082015250565b6000611d89602283611920565b9150611d9482611d2d565b604082019050919050565b60006020820190508181036000830152611db881611d7c565b9050919050565b7f596f752073686f756c6420616464206d6f7265207468616e207468726565207060008201527f726f706f73616c7320746f2067657420626f6e75732e00000000000000000000602082015250565b6000611e1b603683611920565b9150611e2682611dbf565b604082019050919050565b60006020820190508181036000830152611e4a81611e0e565b9050919050565b7f4e487b7100000000000000000000000000000000000000000000000000000000600052601160045260246000fd5b6000611e8b8261180c565b915063ffffffff821415611ea257611ea1611e51565b5b600182019050919050565b6000611ec8611ec3611ebe8461180c565b611a4d565b61189f565b9050919050565b611ed881611ead565b82525050565b6000602082019050611ef36000830184611ecf565b92915050565b611f02816117a1565b82525050565b6000602082019050611f1d6000830184611ef9565b92915050565b600081519050611f32816118a9565b92915050565b600060208284031215611f4e57611f4d611777565b5b6000611f5c84828501611f23565b91505092915050565b7f556e6166666f726461626c6520666f7220766f74696e6720612070726f706f7360008201527f616c2e0000000000000000000000000000000000000000000000000000000000602082015250565b6000611fc1602383611920565b9150611fcc82611f65565b604082019050919050565b60006020820190508181036000830152611ff081611fb4565b9050919050565b600060608201905061200c6000830186611ef9565b6120196020830185611ef9565b61202660408301846119d0565b949350505050565b60008115159050919050565b6120438161202e565b811461204e57600080fd5b50565b6000815190506120608161203a565b92915050565b60006020828403121561207c5761207b611777565b5b600061208a84828501612051565b91505092915050565b7f5468697320757365722068617320616c726561647920766f7465640000000000600082015250565b60006120c9601b83611920565b91506120d482612093565b602082019050919050565b600060208201905081810360008301526120f8816120bc565b9050919050565b7f546869732070726f706f73616c2068617320616c72656164792066696e69736860008201527f6564000000000000000000000000000000000000000000000000000000000000602082015250565b600061215b602283611920565b9150612166826120ff565b604082019050919050565b6000602082019050818103600083015261218a8161214e565b9050919050565b7f596f75206861766520766f74656420746f6f206d7563682074696d6573000000600082015250565b60006121c7601d83611920565b91506121d282612191565b602082019050919050565b600060208201905081810360008301526121f6816121ba565b9050919050565b7f556e6166666f726461626c6520666f7220616464696e6720612070726f706f7360008201527f616c2e0000000000000000000000000000000000000000000000000000000000602082015250565b6000612259602383611920565b9150612264826121fd565b604082019050919050565b600060208201905081810360008301526122888161224c565b9050919050565b600061229a8261189f565b91506122a58361189f565b9250827fffffffffffffffffffffffffffffffffffffffffffffffffffffffffffffffff038211156122da576122d9611e51565b5b828201905092915050565b7f4e487b7100000000000000000000000000000000000000000000000000000000600052602260045260246000fd5b6000600282049050600182168061232c57607f821691505b602082108114156123405761233f6122e5565b5b5091905056fea2646970667358221220299c26321f27de011e5d957a22aa44d6fb84c3c3b5c18411c11e1957d1c32d1b64736f6c6343000809003360806040523480156200001157600080fd5b50604051620019c3380380620019c38339818101604052810190620000379190620002c2565b818181600390805190602001906200005192919062000075565b5080600490805190602001906200006a92919062000075565b5050505050620003ac565b828054620000839062000376565b90600052602060002090601f016020900481019282620000a75760008555620000f3565b82601f10620000c257805160ff1916838001178555620000f3565b82800160010185558215620000f3579182015b82811115620000f2578251825591602001919060010190620000d5565b5b50905062000102919062000106565b5090565b5b808211156200012157600081600090555060010162000107565b5090565b6000604051905090565b600080fd5b600080fd5b600080fd5b600080fd5b6000601f19601f8301169050919050565b7f4e487b7100000000000000000000000000000000000000000000000000000000600052604160045260246000fd5b6200018e8262000143565b810181811067ffffffffffffffff82111715620001b057620001af62000154565b5b80604052505050565b6000620001c562000125565b9050620001d3828262000183565b919050565b600067ffffffffffffffff821115620001f657620001f562000154565b5b620002018262000143565b9050602081019050919050565b60005b838110156200022e57808201518184015260208101905062000211565b838111156200023e576000848401525b50505050565b60006200025b6200025584620001d8565b620001b9565b9050828152602081018484840111156200027a57620002796200013e565b5b620002878482856200020e565b509392505050565b600082601f830112620002a757620002a662000139565b5b8151620002b984826020860162000244565b91505092915050565b60008060408385031215620002dc57620002db6200012f565b5b600083015167ffffffffffffffff811115620002fd57620002fc62000134565b5b6200030b858286016200028f565b925050602083015167ffffffffffffffff8111156200032f576200032e62000134565b5b6200033d858286016200028f565b9150509250929050565b7f4e487b7100000000000000000000000000000000000000000000000000000000600052602260045260246000fd5b600060028204905060018216806200038f57607f821691505b60208210811415620003a657620003a562000347565b5b50919050565b61160780620003bc6000396000f3fe608060405234801561001057600080fd5b50600436106100cf5760003560e01c80633884d6351161008c57806395d89b411161006657806395d89b4114610202578063a457c2d714610220578063a9059cbb14610250578063dd62ed3e14610280576100cf565b80633884d6351461019857806339509351146101a257806370a08231146101d2576100cf565b806306fdde03146100d4578063095ea7b3146100f257806318160ddd14610122578063228cb7331461014057806323b872dd1461014a578063313ce5671461017a575b600080fd5b6100dc6102b0565b6040516100e99190610dc3565b60405180910390f35b61010c60048036038101906101079190610e7e565b610342565b6040516101199190610ed9565b60405180910390f35b61012a610365565b6040516101379190610f03565b60405180910390f35b61014861036f565b005b610164600480360381019061015f9190610f1e565b61037d565b6040516101719190610ed9565b60405180910390f35b6101826103ac565b60405161018f9190610f8d565b60405180910390f35b6101a06103b5565b005b6101bc60048036038101906101b79190610e7e565b6104ae565b6040516101c99190610ed9565b60405180910390f35b6101ec60048036038101906101e79190610fa8565b6104e5565b6040516101f99190610f03565b60405180910390f35b61020a61052d565b6040516102179190610dc3565b60405180910390f35b61023a60048036038101906102359190610e7e565b6105bf565b6040516102479190610ed9565b60405180910390f35b61026a60048036038101906102659190610e7e565b610636565b6040516102779190610ed9565b60405180910390f35b61029a60048036038101906102959190610fd5565b610659565b6040516102a79190610f03565b60405180910390f35b6060600380546102bf90611044565b80601f01602080910402602001604051908101604052809291908181526020018280546102eb90611044565b80156103385780601f1061030d57610100808354040283529160200191610338565b820191906000526020600020905b81548152906001019060200180831161031b57829003601f168201915b5050505050905090565b60008061034d6106e0565b905061035a8185856106e8565b600191505092915050565b6000600254905090565b61037b336113886108b3565b565b6000806103886106e0565b9050610395858285610a13565b6103a0858585610a9f565b60019150509392505050565b60006012905090565b60001515600560003373ffffffffffffffffffffffffffffffffffffffff1673ffffffffffffffffffffffffffffffffffffffff16815260200190815260200160002060009054906101000a900460ff16151514610448576040517f08c379a000000000000000000000000000000000000000000000000000000000815260040161043f906110e8565b60405180910390fd5b610454336127106108b3565b6001600560003373ffffffffffffffffffffffffffffffffffffffff1673ffffffffffffffffffffffffffffffffffffffff16815260200190815260200160002060006101000a81548160ff021916908315150217905550565b6000806104b96106e0565b90506104da8185856104cb8589610659565b6104d59190611137565b6106e8565b600191505092915050565b60008060008373ffffffffffffffffffffffffffffffffffffffff1673ffffffffffffffffffffffffffffffffffffffff168152602001908152602001600020549050919050565b60606004805461053c90611044565b80601f016020809104026020016040519081016040528092919081815260200182805461056890611044565b80156105b55780601f1061058a576101008083540402835291602001916105b5565b820191906000526020600020905b81548152906001019060200180831161059857829003601f168201915b5050505050905090565b6000806105ca6106e0565b905060006105d88286610659565b90508381101561061d576040517f08c379a0000000000000000000000000000000000000000000000000000000008152600401610614906111ff565b60405180910390fd5b61062a82868684036106e8565b60019250505092915050565b6000806106416106e0565b905061064e818585610a9f565b600191505092915050565b6000600160008473ffffffffffffffffffffffffffffffffffffffff1673ffffffffffffffffffffffffffffffffffffffff16815260200190815260200160002060008373ffffffffffffffffffffffffffffffffffffffff1673ffffffffffffffffffffffffffffffffffffffff16815260200190815260200160002054905092915050565b600033905090565b600073ffffffffffffffffffffffffffffffffffffffff168373ffffffffffffffffffffffffffffffffffffffff161415610758576040517f08c379a000000000000000000000000000000000000000000000000000000000815260040161074f90611291565b60405180910390fd5b600073ffffffffffffffffffffffffffffffffffffffff168273ffffffffffffffffffffffffffffffffffffffff1614156107c8576040517f08c379a00000000000000000000000000000000000000000000000000000000081526004016107bf90611323565b60405180910390fd5b80600160008573ffffffffffffffffffffffffffffffffffffffff1673ffffffffffffffffffffffffffffffffffffffff16815260200190815260200160002060008473ffffffffffffffffffffffffffffffffffffffff1673ffffffffffffffffffffffffffffffffffffffff168152602001908152602001600020819055508173ffffffffffffffffffffffffffffffffffffffff168373ffffffffffffffffffffffffffffffffffffffff167f8c5be1e5ebec7d5bd14f71427d1e84f3dd0314c0f7b2291e5b200ac8c7c3b925836040516108a69190610f03565b60405180910390a3505050565b600073ffffffffffffffffffffffffffffffffffffffff168273ffffffffffffffffffffffffffffffffffffffff161415610923576040517f08c379a000000000000000000000000000000000000000000000000000000000815260040161091a9061138f565b60405180910390fd5b61092f60008383610d20565b80600260008282546109419190611137565b92505081905550806000808473ffffffffffffffffffffffffffffffffffffffff1673ffffffffffffffffffffffffffffffffffffffff16815260200190815260200160002060008282546109969190611137565b925050819055508173ffffffffffffffffffffffffffffffffffffffff16600073ffffffffffffffffffffffffffffffffffffffff167fddf252ad1be2c89b69c2b068fc378daa952ba7f163c4a11628f55a4df523b3ef836040516109fb9190610f03565b60405180910390a3610a0f60008383610d25565b5050565b6000610a1f8484610659565b90507fffffffffffffffffffffffffffffffffffffffffffffffffffffffffffffffff8114610a995781811015610a8b576040517f08c379a0000000000000000000000000000000000000000000000000000000008152600401610a82906113fb565b60405180910390fd5b610a9884848484036106e8565b5b50505050565b600073ffffffffffffffffffffffffffffffffffffffff168373ffffffffffffffffffffffffffffffffffffffff161415610b0f576040517f08c379a0000000000000000000000000000000000000000000000000000000008152600401610b069061148d565b60405180910390fd5b600073ffffffffffffffffffffffffffffffffffffffff168273ffffffffffffffffffffffffffffffffffffffff161415610b7f576040517f08c379a0000000000000000000000000000000000000000000000000000000008152600401610b769061151f565b60405180910390fd5b610b8a838383610d20565b60008060008573ffffffffffffffffffffffffffffffffffffffff1673ffffffffffffffffffffffffffffffffffffffff16815260200190815260200160002054905081811015610c10576040517f08c379a0000000000000000000000000000000000000000000000000000000008152600401610c07906115b1565b60405180910390fd5b8181036000808673ffffffffffffffffffffffffffffffffffffffff1673ffffffffffffffffffffffffffffffffffffffff16815260200190815260200160002081905550816000808573ffffffffffffffffffffffffffffffffffffffff1673ffffffffffffffffffffffffffffffffffffffff1681526020019081526020016000206000828254610ca39190611137565b925050819055508273ffffffffffffffffffffffffffffffffffffffff168473ffffffffffffffffffffffffffffffffffffffff167fddf252ad1be2c89b69c2b068fc378daa952ba7f163c4a11628f55a4df523b3ef84604051610d079190610f03565b60405180910390a3610d1a848484610d25565b50505050565b505050565b505050565b600081519050919050565b600082825260208201905092915050565b60005b83811015610d64578082015181840152602081019050610d49565b83811115610d73576000848401525b50505050565b6000601f19601f8301169050919050565b6000610d9582610d2a565b610d9f8185610d35565b9350610daf818560208601610d46565b610db881610d79565b840191505092915050565b60006020820190508181036000830152610ddd8184610d8a565b905092915050565b600080fd5b600073ffffffffffffffffffffffffffffffffffffffff82169050919050565b6000610e1582610dea565b9050919050565b610e2581610e0a565b8114610e3057600080fd5b50565b600081359050610e4281610e1c565b92915050565b6000819050919050565b610e5b81610e48565b8114610e6657600080fd5b50565b600081359050610e7881610e52565b92915050565b60008060408385031215610e9557610e94610de5565b5b6000610ea385828601610e33565b9250506020610eb485828601610e69565b9150509250929050565b60008115159050919050565b610ed381610ebe565b82525050565b6000602082019050610eee6000830184610eca565b92915050565b610efd81610e48565b82525050565b6000602082019050610f186000830184610ef4565b92915050565b600080600060608486031215610f3757610f36610de5565b5b6000610f4586828701610e33565b9350506020610f5686828701610e33565b9250506040610f6786828701610e69565b9150509250925092565b600060ff82169050919050565b610f8781610f71565b82525050565b6000602082019050610fa26000830184610f7e565b92915050565b600060208284031215610fbe57610fbd610de5565b5b6000610fcc84828501610e33565b91505092915050565b60008060408385031215610fec57610feb610de5565b5b6000610ffa85828601610e33565b925050602061100b85828601610e33565b9150509250929050565b7f4e487b7100000000000000000000000000000000000000000000000000000000600052602260045260246000fd5b6000600282049050600182168061105c57607f821691505b602082108114156110705761106f611015565b5b50919050565b7f5468697320757365722068617320636c61696d65642061697264726f7020616c60008201527f7265616479000000000000000000000000000000000000000000000000000000602082015250565b60006110d2602583610d35565b91506110dd82611076565b604082019050919050565b60006020820190508181036000830152611101816110c5565b9050919050565b7f4e487b7100000000000000000000000000000000000000000000000000000000600052601160045260246000fd5b600061114282610e48565b915061114d83610e48565b9250827fffffffffffffffffffffffffffffffffffffffffffffffffffffffffffffffff0382111561118257611181611108565b5b828201905092915050565b7f45524332303a2064656372656173656420616c6c6f77616e63652062656c6f7760008201527f207a65726f000000000000000000000000000000000000000000000000000000602082015250565b60006111e9602583610d35565b91506111f48261118d565b604082019050919050565b60006020820190508181036000830152611218816111dc565b9050919050565b7f45524332303a20617070726f76652066726f6d20746865207a65726f2061646460008201527f7265737300000000000000000000000000000000000000000000000000000000602082015250565b600061127b602483610d35565b91506112868261121f565b604082019050919050565b600060208201905081810360008301526112aa8161126e565b9050919050565b7f45524332303a20617070726f766520746f20746865207a65726f20616464726560008201527f7373000000000000000000000000000000000000000000000000000000000000602082015250565b600061130d602283610d35565b9150611318826112b1565b604082019050919050565b6000602082019050818103600083015261133c81611300565b9050919050565b7f45524332303a206d696e7420746f20746865207a65726f206164647265737300600082015250565b6000611379601f83610d35565b915061138482611343565b602082019050919050565b600060208201905081810360008301526113a88161136c565b9050919050565b7f45524332303a20696e73756666696369656e7420616c6c6f77616e6365000000600082015250565b60006113e5601d83610d35565b91506113f0826113af565b602082019050919050565b60006020820190508181036000830152611414816113d8565b9050919050565b7f45524332303a207472616e736665722066726f6d20746865207a65726f20616460008201527f6472657373000000000000000000000000000000000000000000000000000000602082015250565b6000611477602583610d35565b91506114828261141b565b604082019050919050565b600060208201905081810360008301526114a68161146a565b9050919050565b7f45524332303a207472616e7366657220746f20746865207a65726f206164647260008201527f6573730000000000000000000000000000000000000000000000000000000000602082015250565b6000611509602383610d35565b9150611514826114ad565b604082019050919050565b60006020820190508181036000830152611538816114fc565b9050919050565b7f45524332303a207472616e7366657220616d6f756e742065786365656473206260008201527f616c616e63650000000000000000000000000000000000000000000000000000602082015250565b600061159b602683610d35565b91506115a68261153f565b604082019050919050565b600060208201905081810360008301526115ca8161158e565b905091905056fea26469706673582212204d86d94622bf19510c14ff681fa6dbfcd494f1b7d256fad539eb16d23732a56a64736f6c6343000809003360806040523480156200001157600080fd5b5060405162002d1238038062002d12833981810160405281019062000037919062000303565b8181816000908051906020019062000051929190620000b6565b5080600190805190602001906200006a929190620000b6565b50505033600660006101000a81548173ffffffffffffffffffffffffffffffffffffffff021916908373ffffffffffffffffffffffffffffffffffffffff1602179055505050620003ed565b828054620000c490620003b7565b90600052602060002090601f016020900481019282620000e8576000855562000134565b82601f106200010357805160ff191683800117855562000134565b8280016001018555821562000134579182015b828111156200013357825182559160200191906001019062000116565b5b50905062000143919062000147565b5090565b5b808211156200016257600081600090555060010162000148565b5090565b6000604051905090565b600080fd5b600080fd5b600080fd5b600080fd5b6000601f19601f8301169050919050565b7f4e487b7100000000000000000000000000000000000000000000000000000000600052604160045260246000fd5b620001cf8262000184565b810181811067ffffffffffffffff82111715620001f157620001f062000195565b5b80604052505050565b60006200020662000166565b9050620002148282620001c4565b919050565b600067ffffffffffffffff82111562000237576200023662000195565b5b620002428262000184565b9050602081019050919050565b60005b838110156200026f57808201518184015260208101905062000252565b838111156200027f576000848401525b50505050565b60006200029c620002968462000219565b620001fa565b905082815260208101848484011115620002bb57620002ba6200017f565b5b620002c88482856200024f565b509392505050565b600082601f830112620002e857620002e76200017a565b5b8151620002fa84826020860162000285565b91505092915050565b600080604083850312156200031d576200031c62000170565b5b600083015167ffffffffffffffff8111156200033e576200033d62000175565b5b6200034c85828601620002d0565b925050602083015167ffffffffffffffff81111562000370576200036f62000175565b5b6200037e85828601620002d0565b9150509250929050565b7f4e487b7100000000000000000000000000000000000000000000000000000000600052602260045260246000fd5b60006002820490506001821680620003d057607f821691505b60208210811415620003e757620003e662000388565b5b50919050565b61291580620003fd6000396000f3fe608060405234801561001057600080fd5b50600436106101005760003560e01c806370a0823111610097578063b88d4fde11610066578063b88d4fde146102ab578063c87b56dd146102c7578063e985e9c5146102f7578063ebf952941461032757610100565b806370a08231146102235780638da5cb5b1461025357806395d89b4114610271578063a22cb4651461028f57610100565b8063095ea7b3116100d3578063095ea7b31461019f57806323b872dd146101bb57806342842e0e146101d75780636352211e146101f357610100565b80630184e9521461010557806301ffc9a71461012157806306fdde0314610151578063081812fc1461016f575b600080fd5b61011f600480360381019061011a9190611954565b610357565b005b61013b600480360381019061013691906119d9565b6105a6565b6040516101489190611a21565b60405180910390f35b610159610688565b6040516101669190611ad5565b60405180910390f35b61018960048036038101906101849190611954565b61071a565b6040516101969190611b38565b60405180910390f35b6101b960048036038101906101b49190611b7f565b610760565b005b6101d560048036038101906101d09190611bbf565b610878565b005b6101f160048036038101906101ec9190611bbf565b6108d8565b005b61020d60048036038101906102089190611954565b6108f8565b60405161021a9190611b38565b60405180910390f35b61023d60048036038101906102389190611c12565b6109aa565b60405161024a9190611c4e565b60405180910390f35b61025b610a62565b6040516102689190611b38565b60405180910390f35b610279610a88565b6040516102869190611ad5565b60405180910390f35b6102a960048036038101906102a49190611c95565b610b1a565b005b6102c560048036038101906102c09190611e0a565b610b30565b005b6102e160048036038101906102dc9190611954565b610b92565b6040516102ee9190611ad5565b60405180910390f35b610311600480360381019061030c9190611e8d565b610bfa565b60405161031e9190611a21565b60405180910390f35b610341600480360381019061033c9190611c12565b610c8e565b60405161034e9190611c4e565b60405180910390f35b3373ffffffffffffffffffffffffffffffffffffffff16600660009054906101000a900473ffffffffffffffffffffffffffffffffffffffff1673ffffffffffffffffffffffffffffffffffffffff16146103e7576040517f08c379a00000000000000000000000000000000000000000000000000000000081526004016103de90611f19565b60405180910390fd5b60001515600860003373ffffffffffffffffffffffffffffffffffffffff1673ffffffffffffffffffffffffffffffffffffffff16815260200190815260200160002060009054906101000a900460ff1615151461047a576040517f08c379a000000000000000000000000000000000000000000000000000000000815260040161047190611fab565b60405180910390fd5b6104843382610d4d565b600060405180604001604052808381526020013373ffffffffffffffffffffffffffffffffffffffff16815250905080600760000160003373ffffffffffffffffffffffffffffffffffffffff1673ffffffffffffffffffffffffffffffffffffffff1681526020019081526020016000206000820151816000015560208201518160010160006101000a81548173ffffffffffffffffffffffffffffffffffffffff021916908373ffffffffffffffffffffffffffffffffffffffff1602179055509050506001600860003373ffffffffffffffffffffffffffffffffffffffff1673ffffffffffffffffffffffffffffffffffffffff16815260200190815260200160002060006101000a81548160ff0219169083151502179055505050565b60007f80ac58cd000000000000000000000000000000000000000000000000000000007bffffffffffffffffffffffffffffffffffffffffffffffffffffffff1916827bffffffffffffffffffffffffffffffffffffffffffffffffffffffff1916148061067157507f5b5e139f000000000000000000000000000000000000000000000000000000007bffffffffffffffffffffffffffffffffffffffffffffffffffffffff1916827bffffffffffffffffffffffffffffffffffffffffffffffffffffffff1916145b80610681575061068082610f27565b5b9050919050565b60606000805461069790611ffa565b80601f01602080910402602001604051908101604052809291908181526020018280546106c390611ffa565b80156107105780601f106106e557610100808354040283529160200191610710565b820191906000526020600020905b8154815290600101906020018083116106f357829003601f168201915b5050505050905090565b600061072582610f91565b6004600083815260200190815260200160002060009054906101000a900473ffffffffffffffffffffffffffffffffffffffff169050919050565b600061076b826108f8565b90508073ffffffffffffffffffffffffffffffffffffffff168373ffffffffffffffffffffffffffffffffffffffff1614156107dc576040517f08c379a00000000000000000000000000000000000000000000000000000000081526004016107d39061209e565b60405180910390fd5b8073ffffffffffffffffffffffffffffffffffffffff166107fb610fdc565b73ffffffffffffffffffffffffffffffffffffffff16148061082a575061082981610824610fdc565b610bfa565b5b610869576040517f08c379a000000000000000000000000000000000000000000000000000000000815260040161086090612130565b60405180910390fd5b6108738383610fe4565b505050565b610889610883610fdc565b8261109d565b6108c8576040517f08c379a00000000000000000000000000000000000000000000000000000000081526004016108bf906121c2565b60405180910390fd5b6108d3838383611132565b505050565b6108f383838360405180602001604052806000815250610b30565b505050565b6000806002600084815260200190815260200160002060009054906101000a900473ffffffffffffffffffffffffffffffffffffffff169050600073ffffffffffffffffffffffffffffffffffffffff168173ffffffffffffffffffffffffffffffffffffffff1614156109a1576040517f08c379a00000000000000000000000000000000000000000000000000000000081526004016109989061222e565b60405180910390fd5b80915050919050565b60008073ffffffffffffffffffffffffffffffffffffffff168273ffffffffffffffffffffffffffffffffffffffff161415610a1b576040517f08c379a0000000000000000000000000000000000000000000000000000000008152600401610a12906122c0565b60405180910390fd5b600360008373ffffffffffffffffffffffffffffffffffffffff1673ffffffffffffffffffffffffffffffffffffffff168152602001908152602001600020549050919050565b600660009054906101000a900473ffffffffffffffffffffffffffffffffffffffff1681565b606060018054610a9790611ffa565b80601f0160208091040260200160405190810160405280929190818152602001828054610ac390611ffa565b8015610b105780601f10610ae557610100808354040283529160200191610b10565b820191906000526020600020905b815481529060010190602001808311610af357829003601f168201915b5050505050905090565b610b2c610b25610fdc565b8383611399565b5050565b610b41610b3b610fdc565b8361109d565b610b80576040517f08c379a0000000000000000000000000000000000000000000000000000000008152600401610b77906121c2565b60405180910390fd5b610b8c84848484611506565b50505050565b6060610b9d82610f91565b6000610ba7611562565b90506000815111610bc75760405180602001604052806000815250610bf2565b80610bd184611579565b604051602001610be292919061231c565b6040516020818303038152906040525b915050919050565b6000600560008473ffffffffffffffffffffffffffffffffffffffff1673ffffffffffffffffffffffffffffffffffffffff16815260200190815260200160002060008373ffffffffffffffffffffffffffffffffffffffff1673ffffffffffffffffffffffffffffffffffffffff16815260200190815260200160002060009054906101000a900460ff16905092915050565b600080600760000160008473ffffffffffffffffffffffffffffffffffffffff1673ffffffffffffffffffffffffffffffffffffffff168152602001908152602001600020604051806040016040529081600082015481526020016001820160009054906101000a900473ffffffffffffffffffffffffffffffffffffffff1673ffffffffffffffffffffffffffffffffffffffff1673ffffffffffffffffffffffffffffffffffffffff168152505090508060000151915050919050565b600073ffffffffffffffffffffffffffffffffffffffff168273ffffffffffffffffffffffffffffffffffffffff161415610dbd576040517f08c379a0000000000000000000000000000000000000000000000000000000008152600401610db49061238c565b60405180910390fd5b610dc6816116da565b15610e06576040517f08c379a0000000000000000000000000000000000000000000000000000000008152600401610dfd906123f8565b60405180910390fd5b610e1260008383611746565b6001600360008473ffffffffffffffffffffffffffffffffffffffff1673ffffffffffffffffffffffffffffffffffffffff1681526020019081526020016000206000828254610e629190612447565b92505081905550816002600083815260200190815260200160002060006101000a81548173ffffffffffffffffffffffffffffffffffffffff021916908373ffffffffffffffffffffffffffffffffffffffff160217905550808273ffffffffffffffffffffffffffffffffffffffff16600073ffffffffffffffffffffffffffffffffffffffff167fddf252ad1be2c89b69c2b068fc378daa952ba7f163c4a11628f55a4df523b3ef60405160405180910390a4610f236000838361174b565b5050565b60007f01ffc9a7000000000000000000000000000000000000000000000000000000007bffffffffffffffffffffffffffffffffffffffffffffffffffffffff1916827bffffffffffffffffffffffffffffffffffffffffffffffffffffffff1916149050919050565b610f9a816116da565b610fd9576040517f08c379a0000000000000000000000000000000000000000000000000000000008152600401610fd09061222e565b60405180910390fd5b50565b600033905090565b816004600083815260200190815260200160002060006101000a81548173ffffffffffffffffffffffffffffffffffffffff021916908373ffffffffffffffffffffffffffffffffffffffff160217905550808273ffffffffffffffffffffffffffffffffffffffff16611057836108f8565b73ffffffffffffffffffffffffffffffffffffffff167f8c5be1e5ebec7d5bd14f71427d1e84f3dd0314c0f7b2291e5b200ac8c7c3b92560405160405180910390a45050565b6000806110a9836108f8565b90508073ffffffffffffffffffffffffffffffffffffffff168473ffffffffffffffffffffffffffffffffffffffff1614806110eb57506110ea8185610bfa565b5b8061112957508373ffffffffffffffffffffffffffffffffffffffff166111118461071a565b73ffffffffffffffffffffffffffffffffffffffff16145b91505092915050565b8273ffffffffffffffffffffffffffffffffffffffff16611152826108f8565b73ffffffffffffffffffffffffffffffffffffffff16146111a8576040517f08c379a000000000000000000000000000000000000000000000000000000000815260040161119f9061250f565b60405180910390fd5b600073ffffffffffffffffffffffffffffffffffffffff168273ffffffffffffffffffffffffffffffffffffffff161415611218576040517f08c379a000000000000000000000000000000000000000000000000000000000815260040161120f906125a1565b60405180910390fd5b611223838383611746565b61122e600082610fe4565b6001600360008573ffffffffffffffffffffffffffffffffffffffff1673ffffffffffffffffffffffffffffffffffffffff168152602001908152602001600020600082825461127e91906125c1565b925050819055506001600360008473ffffffffffffffffffffffffffffffffffffffff1673ffffffffffffffffffffffffffffffffffffffff16815260200190815260200160002060008282546112d59190612447565b92505081905550816002600083815260200190815260200160002060006101000a81548173ffffffffffffffffffffffffffffffffffffffff021916908373ffffffffffffffffffffffffffffffffffffffff160217905550808273ffffffffffffffffffffffffffffffffffffffff168473ffffffffffffffffffffffffffffffffffffffff167fddf252ad1be2c89b69c2b068fc378daa952ba7f163c4a11628f55a4df523b3ef60405160405180910390a461139483838361174b565b505050565b8173ffffffffffffffffffffffffffffffffffffffff168373ffffffffffffffffffffffffffffffffffffffff161415611408576040517f08c379a00000000000000000000000000000000000000000000000000000000081526004016113ff90612641565b60405180910390fd5b80600560008573ffffffffffffffffffffffffffffffffffffffff1673ffffffffffffffffffffffffffffffffffffffff16815260200190815260200160002060008473ffffffffffffffffffffffffffffffffffffffff1673ffffffffffffffffffffffffffffffffffffffff16815260200190815260200160002060006101000a81548160ff0219169083151502179055508173ffffffffffffffffffffffffffffffffffffffff168373ffffffffffffffffffffffffffffffffffffffff167f17307eab39ab6107e8899845ad3d59bd9653f200f220920489ca2b5937696c31836040516114f99190611a21565b60405180910390a3505050565b611511848484611132565b61151d84848484611750565b61155c576040517f08c379a0000000000000000000000000000000000000000000000000000000008152600401611553906126d3565b60405180910390fd5b50505050565b606060405180602001604052806000815250905090565b606060008214156115c1576040518060400160405280600181526020017f300000000000000000000000000000000000000000000000000000000000000081525090506116d5565b600082905060005b600082146115f35780806115dc906126f3565b915050600a826115ec919061276b565b91506115c9565b60008167ffffffffffffffff81111561160f5761160e611cdf565b5b6040519080825280601f01601f1916602001820160405280156116415781602001600182028036833780820191505090505b5090505b600085146116ce5760018261165a91906125c1565b9150600a85611669919061279c565b60306116759190612447565b60f81b81838151811061168b5761168a6127cd565b5b60200101907effffffffffffffffffffffffffffffffffffffffffffffffffffffffffffff1916908160001a905350600a856116c7919061276b565b9450611645565b8093505050505b919050565b60008073ffffffffffffffffffffffffffffffffffffffff166002600084815260200190815260200160002060009054906101000a900473ffffffffffffffffffffffffffffffffffffffff1673ffffffffffffffffffffffffffffffffffffffff1614159050919050565b505050565b505050565b60006117718473ffffffffffffffffffffffffffffffffffffffff166118e7565b156118da578373ffffffffffffffffffffffffffffffffffffffff1663150b7a0261179a610fdc565b8786866040518563ffffffff1660e01b81526004016117bc9493929190612851565b602060405180830381600087803b1580156117d657600080fd5b505af192505050801561180757506040513d601f19601f8201168201806040525081019061180491906128b2565b60015b61188a573d8060008114611837576040519150601f19603f3d011682016040523d82523d6000602084013e61183c565b606091505b50600081511415611882576040517f08c379a0000000000000000000000000000000000000000000000000000000008152600401611879906126d3565b60405180910390fd5b805181602001fd5b63150b7a0260e01b7bffffffffffffffffffffffffffffffffffffffffffffffffffffffff1916817bffffffffffffffffffffffffffffffffffffffffffffffffffffffff1916149150506118df565b600190505b949350505050565b6000808273ffffffffffffffffffffffffffffffffffffffff163b119050919050565b6000604051905090565b600080fd5b600080fd5b6000819050919050565b6119318161191e565b811461193c57600080fd5b50565b60008135905061194e81611928565b92915050565b60006020828403121561196a57611969611914565b5b60006119788482850161193f565b91505092915050565b60007fffffffff0000000000000000000000000000000000000000000000000000000082169050919050565b6119b681611981565b81146119c157600080fd5b50565b6000813590506119d3816119ad565b92915050565b6000602082840312156119ef576119ee611914565b5b60006119fd848285016119c4565b91505092915050565b60008115159050919050565b611a1b81611a06565b82525050565b6000602082019050611a366000830184611a12565b92915050565b600081519050919050565b600082825260208201905092915050565b60005b83811015611a76578082015181840152602081019050611a5b565b83811115611a85576000848401525b50505050565b6000601f19601f8301169050919050565b6000611aa782611a3c565b611ab18185611a47565b9350611ac1818560208601611a58565b611aca81611a8b565b840191505092915050565b60006020820190508181036000830152611aef8184611a9c565b905092915050565b600073ffffffffffffffffffffffffffffffffffffffff82169050919050565b6000611b2282611af7565b9050919050565b611b3281611b17565b82525050565b6000602082019050611b4d6000830184611b29565b92915050565b611b5c81611b17565b8114611b6757600080fd5b50565b600081359050611b7981611b53565b92915050565b60008060408385031215611b9657611b95611914565b5b6000611ba485828601611b6a565b9250506020611bb58582860161193f565b9150509250929050565b600080600060608486031215611bd857611bd7611914565b5b6000611be686828701611b6a565b9350506020611bf786828701611b6a565b9250506040611c088682870161193f565b9150509250925092565b600060208284031215611c2857611c27611914565b5b6000611c3684828501611b6a565b91505092915050565b611c488161191e565b82525050565b6000602082019050611c636000830184611c3f565b92915050565b611c7281611a06565b8114611c7d57600080fd5b50565b600081359050611c8f81611c69565b92915050565b60008060408385031215611cac57611cab611914565b5b6000611cba85828601611b6a565b9250506020611ccb85828601611c80565b9150509250929050565b600080fd5b600080fd5b7f4e487b7100000000000000000000000000000000000000000000000000000000600052604160045260246000fd5b611d1782611a8b565b810181811067ffffffffffffffff82111715611d3657611d35611cdf565b5b80604052505050565b6000611d4961190a565b9050611d558282611d0e565b919050565b600067ffffffffffffffff821115611d7557611d74611cdf565b5b611d7e82611a8b565b9050602081019050919050565b82818337600083830152505050565b6000611dad611da884611d5a565b611d3f565b905082815260208101848484011115611dc957611dc8611cda565b5b611dd4848285611d8b565b509392505050565b600082601f830112611df157611df0611cd5565b5b8135611e01848260208601611d9a565b91505092915050565b60008060008060808587031215611e2457611e23611914565b5b6000611e3287828801611b6a565b9450506020611e4387828801611b6a565b9350506040611e548782880161193f565b925050606085013567ffffffffffffffff811115611e7557611e74611919565b5b611e8187828801611ddc565b91505092959194509250565b60008060408385031215611ea457611ea3611914565b5b6000611eb285828601611b6a565b9250506020611ec385828601611b6a565b9150509250929050565b7f4e6f74206f776e65722e00000000000000000000000000000000000000000000600082015250565b6000611f03600a83611a47565b9150611f0e82611ecd565b602082019050919050565b60006020820190508181036000830152611f3281611ef6565b9050919050565b7f5468697320757365722068617320636c61696d656420626f6e757320616c726560008201527f6164790000000000000000000000000000000000000000000000000000000000602082015250565b6000611f95602383611a47565b9150611fa082611f39565b604082019050919050565b60006020820190508181036000830152611fc481611f88565b9050919050565b7f4e487b7100000000000000000000000000000000000000000000000000000000600052602260045260246000fd5b6000600282049050600182168061201257607f821691505b6020821081141561202657612025611fcb565b5b50919050565b7f4552433732313a20617070726f76616c20746f2063757272656e74206f776e6560008201527f7200000000000000000000000000000000000000000000000000000000000000602082015250565b6000612088602183611a47565b91506120938261202c565b604082019050919050565b600060208201905081810360008301526120b78161207b565b9050919050565b7f4552433732313a20617070726f76652063616c6c6572206973206e6f7420746f60008201527f6b656e206f776e6572206e6f7220617070726f76656420666f7220616c6c0000602082015250565b600061211a603e83611a47565b9150612125826120be565b604082019050919050565b600060208201905081810360008301526121498161210d565b9050919050565b7f4552433732313a2063616c6c6572206973206e6f7420746f6b656e206f776e6560008201527f72206e6f7220617070726f766564000000000000000000000000000000000000602082015250565b60006121ac602e83611a47565b91506121b782612150565b604082019050919050565b600060208201905081810360008301526121db8161219f565b9050919050565b7f4552433732313a20696e76616c696420746f6b656e2049440000000000000000600082015250565b6000612218601883611a47565b9150612223826121e2565b602082019050919050565b600060208201905081810360008301526122478161220b565b9050919050565b7f4552433732313a2061646472657373207a65726f206973206e6f74206120766160008201527f6c6964206f776e65720000000000000000000000000000000000000000000000602082015250565b60006122aa602983611a47565b91506122b58261224e565b604082019050919050565b600060208201905081810360008301526122d98161229d565b9050919050565b600081905092915050565b60006122f682611a3c565b61230081856122e0565b9350612310818560208601611a58565b80840191505092915050565b600061232882856122eb565b915061233482846122eb565b91508190509392505050565b7f4552433732313a206d696e7420746f20746865207a65726f2061646472657373600082015250565b6000612376602083611a47565b915061238182612340565b602082019050919050565b600060208201905081810360008301526123a581612369565b9050919050565b7f4552433732313a20746f6b656e20616c7265616479206d696e74656400000000600082015250565b60006123e2601c83611a47565b91506123ed826123ac565b602082019050919050565b60006020820190508181036000830152612411816123d5565b9050919050565b7f4e487b7100000000000000000000000000000000000000000000000000000000600052601160045260246000fd5b60006124528261191e565b915061245d8361191e565b9250827fffffffffffffffffffffffffffffffffffffffffffffffffffffffffffffffff0382111561249257612491612418565b5b828201905092915050565b7f4552433732313a207472616e736665722066726f6d20696e636f72726563742060008201527f6f776e6572000000000000000000000000000000000000000000000000000000602082015250565b60006124f9602583611a47565b91506125048261249d565b604082019050919050565b60006020820190508181036000830152612528816124ec565b9050919050565b7f4552433732313a207472616e7366657220746f20746865207a65726f2061646460008201527f7265737300000000000000000000000000000000000000000000000000000000602082015250565b600061258b602483611a47565b91506125968261252f565b604082019050919050565b600060208201905081810360008301526125ba8161257e565b9050919050565b60006125cc8261191e565b91506125d78361191e565b9250828210156125ea576125e9612418565b5b828203905092915050565b7f4552433732313a20617070726f766520746f2063616c6c657200000000000000600082015250565b600061262b601983611a47565b9150612636826125f5565b602082019050919050565b6000602082019050818103600083015261265a8161261e565b9050919050565b7f4552433732313a207472616e7366657220746f206e6f6e20455243373231526560008201527f63656976657220696d706c656d656e7465720000000000000000000000000000602082015250565b60006126bd603283611a47565b91506126c882612661565b604082019050919050565b600060208201905081810360008301526126ec816126b0565b9050919050565b60006126fe8261191e565b91507fffffffffffffffffffffffffffffffffffffffffffffffffffffffffffffffff82141561273157612730612418565b5b600182019050919050565b7f4e487b7100000000000000000000000000000000000000000000000000000000600052601260045260246000fd5b60006127768261191e565b91506127818361191e565b9250826127915761279061273c565b5b828204905092915050565b60006127a78261191e565b91506127b28361191e565b9250826127c2576127c161273c565b5b828206905092915050565b7f4e487b7100000000000000000000000000000000000000000000000000000000600052603260045260246000fd5b600081519050919050565b600082825260208201905092915050565b6000612823826127fc565b61282d8185612807565b935061283d818560208601611a58565b61284681611a8b565b840191505092915050565b60006080820190506128666000830187611b29565b6128736020830186611b29565b6128806040830185611c3f565b81810360608301526128928184612818565b905095945050505050565b6000815190506128ac816119ad565b92915050565b6000602082840312156128c8576128c7611914565b5b60006128d68482850161289d565b9150509291505056fea2646970667358221220d0ad2c3ea1c53b45c4a9c593ccb210bee8159b06c8bc1e51b1427958433dab0d64736f6c63430008090033",
  "linkReferences": {},
  "deployedLinkReferences": {}
}